{
  "contractName": "BuyToken",
  "abi": [
    {
      "constant": true,
      "inputs": [],
      "name": "owner",
      "outputs": [
        {
          "name": "",
          "type": "address"
        }
      ],
      "payable": false,
      "stateMutability": "view",
      "type": "function"
    },
    {
      "constant": true,
      "inputs": [],
      "name": "Cafe",
      "outputs": [
        {
          "name": "",
          "type": "address"
        }
      ],
      "payable": false,
      "stateMutability": "view",
      "type": "function"
    },
    {
      "inputs": [
        {
          "name": "_tokenAdd",
          "type": "address"
        }
      ],
      "payable": false,
      "stateMutability": "nonpayable",
      "type": "constructor"
    },
    {
      "anonymous": false,
      "inputs": [
        {
          "indexed": false,
          "name": "_from",
          "type": "address"
        },
        {
          "indexed": false,
          "name": "_value",
          "type": "uint256"
        }
      ],
      "name": "transferEther",
      "type": "event"
    },
    {
      "constant": false,
      "inputs": [],
      "name": "buyArticle",
      "outputs": [],
      "payable": true,
      "stateMutability": "payable",
      "type": "function"
    },
    {
      "constant": false,
      "inputs": [
        {
          "name": "_id",
          "type": "uint256"
        }
      ],
      "name": "payByToken",
      "outputs": [],
      "payable": false,
      "stateMutability": "nonpayable",
      "type": "function"
    }
  ],
  "bytecode": "0x608060405234801561001057600080fd5b506040516020806108128339810180604052810190808051906020019092919050505033600160006101000a81548173ffffffffffffffffffffffffffffffffffffffff021916908373ffffffffffffffffffffffffffffffffffffffff160217905550806000806101000a81548173ffffffffffffffffffffffffffffffffffffffff021916908373ffffffffffffffffffffffffffffffffffffffff1602179055505061074e806100c46000396000f300608060405260043610610062576000357c0100000000000000000000000000000000000000000000000000000000900463ffffffff1680638da5cb5b14610067578063a005db41146100be578063ae9b068d146100c8578063b4e9a9d9146100f5575b600080fd5b34801561007357600080fd5b5061007c61014c565b604051808273ffffffffffffffffffffffffffffffffffffffff1673ffffffffffffffffffffffffffffffffffffffff16815260200191505060405180910390f35b6100c6610172565b005b3480156100d457600080fd5b506100f36004803603810190808035906020019092919050505061051a565b005b34801561010157600080fd5b5061010a6106fd565b604051808273ffffffffffffffffffffffffffffffffffffffff1673ffffffffffffffffffffffffffffffffffffffff16815260200191505060405180910390f35b600160009054906101000a900473ffffffffffffffffffffffffffffffffffffffff1681565b6000803411151561018257600080fd5b600160009054906101000a900473ffffffffffffffffffffffffffffffffffffffff1673ffffffffffffffffffffffffffffffffffffffff166108fc349081150290604051600060405180830381858888f193505050501580156101ea573d6000803e3d6000fd5b507f05b1137b682add447c965fe52aff916d00305a22b4a70f761ea56d0c6d0bd03d3334604051808373ffffffffffffffffffffffffffffffffffffffff1673ffffffffffffffffffffffffffffffffffffffff1681526020018281526020019250505060405180910390a16001905066038d7ea4c68000341415610383576000809054906101000a900473ffffffffffffffffffffffffffffffffffffffff1673ffffffffffffffffffffffffffffffffffffffff16633a1a5b5f33836040518363ffffffff167c010000000000000000000000000000000000000000000000000000000002815260040180806020018473ffffffffffffffffffffffffffffffffffffffff1673ffffffffffffffffffffffffffffffffffffffff16815260200183151515158152602001828103825260068152602001807f4e6f726d616c00000000000000000000000000000000000000000000000000008152506020019350505050600060405180830381600087803b15801561036a57600080fd5b505af115801561037e573d6000803e3d6000fd5b505050505b66071afd498d00003414156104ac576000809054906101000a900473ffffffffffffffffffffffffffffffffffffffff1673ffffffffffffffffffffffffffffffffffffffff16633a1a5b5f33836040518363ffffffff167c010000000000000000000000000000000000000000000000000000000002815260040180806020018473ffffffffffffffffffffffffffffffffffffffff1673ffffffffffffffffffffffffffffffffffffffff16815260200183151515158152602001828103825260038152602001807f56495000000000000000000000000000000000000000000000000000000000008152506020019350505050600060405180830381600087803b15801561049357600080fd5b505af11580156104a7573d6000803e3d6000fd5b505050505b7f05b1137b682add447c965fe52aff916d00305a22b4a70f761ea56d0c6d0bd03d3334604051808373ffffffffffffffffffffffffffffffffffffffff1673ffffffffffffffffffffffffffffffffffffffff1681526020018281526020019250505060405180910390a150565b3373ffffffffffffffffffffffffffffffffffffffff166000809054906101000a900473ffffffffffffffffffffffffffffffffffffffff1673ffffffffffffffffffffffffffffffffffffffff16636352211e836040518263ffffffff167c010000000000000000000000000000000000000000000000000000000002815260040180828152602001915050602060405180830381600087803b1580156105c157600080fd5b505af11580156105d5573d6000803e3d6000fd5b505050506040513d60208110156105eb57600080fd5b810190808051906020019092919050505073ffffffffffffffffffffffffffffffffffffffff1614151561061e57600080fd5b6000809054906101000a900473ffffffffffffffffffffffffffffffffffffffff1673ffffffffffffffffffffffffffffffffffffffff16638568523a33836040518363ffffffff167c0100000000000000000000000000000000000000000000000000000000028152600401808373ffffffffffffffffffffffffffffffffffffffff1673ffffffffffffffffffffffffffffffffffffffff16815260200182815260200192505050600060405180830381600087803b1580156106e257600080fd5b505af11580156106f6573d6000803e3d6000fd5b5050505050565b6000809054906101000a900473ffffffffffffffffffffffffffffffffffffffff16815600a165627a7a72305820e26c6c12b8f5b72329df1926878c73c1032a530828240f55e3dd023d77a119f30029",
  "source": "pragma solidity ^0.4.24;\n\ncontract CafeArticle {\n\n  \n    function totalSupply() view public returns (uint256);\n    function balanceOf(address _owner) public view returns (uint256);\n    function transfer(address _from,address _to,uint256 _id) internal ;\n    function createArticle(string _name,address _to,bool _approve) external;\n    function transferToOwner (address _from,uint256 _id) external;\n    function ownerOf(uint256 _id) external view returns (address);\n}\n\n\ncontract BuyToken {\n    \n    CafeArticle public Cafe;\n    address public owner;\n    bool internal configOwner;\n    \n    event transferEther(address _from,uint256 _value);\n    \n    constructor (address _tokenAdd) public {\n        owner = msg.sender;\n        Cafe = CafeArticle(_tokenAdd);\n    }\n    \n    modifier isOwner {\n        require(msg.sender == owner);\n        _;\n    }\n    \n    function buyArticle () public payable {\n        require(msg.value > 0);\n        owner.transfer(msg.value);\n        emit transferEther(msg.sender,msg.value);\n        bool approve = true;\n        if (msg.value == 0.001 ether)\n        Cafe.createArticle(\"Normal\",msg.sender,approve);\n        if (msg.value == 0.002 ether)\n        Cafe.createArticle(\"VIP\",msg.sender,approve);\n        emit transferEther(msg.sender,msg.value);\n    }\n    function payByToken (uint256 _id) public {\n        require(Cafe.ownerOf(_id) == msg.sender);\n        Cafe.transferToOwner(msg.sender,_id);\n    }\n    \n}",
  "sourcePath": "/home/chau/Documents/Internship/CoffeeChain/contract/contracts/BuyToken.sol",
  "compiler": {
    "name": "solc",
    "version": "0.4.24+commit.e67f0147.Emscripten.clang"
  },
  "schemaVersion": "2.0.1",
  "updatedAt": "2018-08-24T02:49:13.912Z"
}