{
  "contractName": "buyToken",
  "abi": [
    {
      "constant": true,
      "inputs": [],
      "name": "owner",
      "outputs": [
        {
          "name": "",
          "type": "address"
        }
      ],
      "payable": false,
      "stateMutability": "view",
      "type": "function"
    },
    {
      "constant": true,
      "inputs": [],
      "name": "Cafe",
      "outputs": [
        {
          "name": "",
          "type": "address"
        }
      ],
      "payable": false,
      "stateMutability": "view",
      "type": "function"
    },
    {
      "inputs": [
        {
          "name": "_tokenAdd",
          "type": "address"
        }
      ],
      "payable": false,
      "stateMutability": "nonpayable",
      "type": "constructor"
    },
    {
      "anonymous": false,
      "inputs": [
        {
          "indexed": false,
          "name": "_from",
          "type": "address"
        },
        {
          "indexed": false,
          "name": "_value",
          "type": "uint256"
        }
      ],
      "name": "transferEther",
      "type": "event"
    },
    {
      "constant": false,
      "inputs": [
        {
          "name": "_name",
          "type": "string"
        }
      ],
      "name": "buyCrticle",
      "outputs": [],
      "payable": true,
      "stateMutability": "payable",
      "type": "function"
    },
    {
      "constant": false,
      "inputs": [
        {
          "name": "_id",
          "type": "uint256"
        }
      ],
      "name": "payByToken",
      "outputs": [],
      "payable": false,
      "stateMutability": "nonpayable",
      "type": "function"
    }
  ],
  "bytecode": "0x608060405234801561001057600080fd5b506040516020806106fc8339810180604052810190808051906020019092919050505033600160006101000a81548173ffffffffffffffffffffffffffffffffffffffff021916908373ffffffffffffffffffffffffffffffffffffffff160217905550806000806101000a81548173ffffffffffffffffffffffffffffffffffffffff021916908373ffffffffffffffffffffffffffffffffffffffff16021790555050610638806100c46000396000f300608060405260043610610062576000357c0100000000000000000000000000000000000000000000000000000000900463ffffffff1680638da5cb5b14610067578063ae9b068d146100be578063b4e9a9d9146100eb578063c374bc2514610142575b600080fd5b34801561007357600080fd5b5061007c61019e565b604051808273ffffffffffffffffffffffffffffffffffffffff1673ffffffffffffffffffffffffffffffffffffffff16815260200191505060405180910390f35b3480156100ca57600080fd5b506100e9600480360381019080803590602001909291905050506101c4565b005b3480156100f757600080fd5b506101006103a7565b604051808273ffffffffffffffffffffffffffffffffffffffff1673ffffffffffffffffffffffffffffffffffffffff16815260200191505060405180910390f35b61019c600480360381019080803590602001908201803590602001908080601f01602080910402602001604051908101604052809392919081815260200183838082843782019150505050505091929192905050506103cc565b005b600160009054906101000a900473ffffffffffffffffffffffffffffffffffffffff1681565b3373ffffffffffffffffffffffffffffffffffffffff166000809054906101000a900473ffffffffffffffffffffffffffffffffffffffff1673ffffffffffffffffffffffffffffffffffffffff16636352211e836040518263ffffffff167c010000000000000000000000000000000000000000000000000000000002815260040180828152602001915050602060405180830381600087803b15801561026b57600080fd5b505af115801561027f573d6000803e3d6000fd5b505050506040513d602081101561029557600080fd5b810190808051906020019092919050505073ffffffffffffffffffffffffffffffffffffffff161415156102c857600080fd5b6000809054906101000a900473ffffffffffffffffffffffffffffffffffffffff1673ffffffffffffffffffffffffffffffffffffffff16638568523a33836040518363ffffffff167c0100000000000000000000000000000000000000000000000000000000028152600401808373ffffffffffffffffffffffffffffffffffffffff1673ffffffffffffffffffffffffffffffffffffffff16815260200182815260200192505050600060405180830381600087803b15801561038c57600080fd5b505af11580156103a0573d6000803e3d6000fd5b5050505050565b6000809054906101000a900473ffffffffffffffffffffffffffffffffffffffff1681565b600066038d7ea4c68000341415156103e357600080fd5b600160009054906101000a900473ffffffffffffffffffffffffffffffffffffffff1673ffffffffffffffffffffffffffffffffffffffff166108fc349081150290604051600060405180830381858888f1935050505015801561044b573d6000803e3d6000fd5b507f05b1137b682add447c965fe52aff916d00305a22b4a70f761ea56d0c6d0bd03d3334604051808373ffffffffffffffffffffffffffffffffffffffff1673ffffffffffffffffffffffffffffffffffffffff1681526020018281526020019250505060405180910390a1600190506000809054906101000a900473ffffffffffffffffffffffffffffffffffffffff1673ffffffffffffffffffffffffffffffffffffffff16633a1a5b5f8333846040518463ffffffff167c010000000000000000000000000000000000000000000000000000000002815260040180806020018473ffffffffffffffffffffffffffffffffffffffff1673ffffffffffffffffffffffffffffffffffffffff16815260200183151515158152602001828103825285818151815260200191508051906020019080838360005b838110156105a2578082015181840152602081019050610587565b50505050905090810190601f1680156105cf5780820380516001836020036101000a031916815260200191505b50945050505050600060405180830381600087803b1580156105f057600080fd5b505af1158015610604573d6000803e3d6000fd5b5050505050505600a165627a7a723058202ff3633c5f4771bb7d50be464d788667c676745a31c97e36e150be3825371d590029",
  "source": "pragma solidity ^0.4.24;\n\ncontract ERC721 {\n    // Required methods\n    function totalSupply() public view returns (uint256 total);\n    function balanceOf(address _owner) public view returns (uint256 balance);\n    function ownerOf(uint256 _tokenId) external view returns (address owner);\n    function approve(address _to, uint256 _tokenId) external;\n    function transfer(address _to, uint256 _tokenId) external;\n    function transferFrom(address _from, address _to, uint256 _tokenId) external;\n\n    // Events\n    event Transfer(address from, address to, uint256 tokenId);\n    event Approval(address owner, address approved, uint256 tokenId);\n\n    // Optional\n    // function name() public view returns (string name);\n    // function symbol() public view returns (string symbol);\n    // function tokensOfOwner(address _owner) external view returns (uint256[] tokenIds);\n    // function tokenMetadata(uint256 _tokenId, string _preferredTransport) public view returns (string infoUrl);\n\n    // ERC-165 Compatibility (https://github.com/ethereum/EIPs/issues/165)\n    function supportsInterface(bytes4 _interfaceID) external view returns (bool);\n}\n\ncontract CafeArticle {\n\n    address public storekeeper;\n    \n    struct Article {\n        string name;\n    }\n    \n    string internal name;\n    string internal symbol;\n\n    mapping(string => uint256)  discount;\n    \n    mapping(uint256 => address)  articleOwner;\n    \n    mapping(uint256 => address)  ownerOfArticle;\n\n    mapping(address => uint256)  ownedArticleCount;\n    \n    mapping(uint256 => address)  approvedArticleTo;\n    \n    event Transfer(address from, address to, uint256 tokenId);\n    \n    Article[] public articles;\n\n    modifier isStoreKeeper {\n        require(msg.sender == storekeeper);\n        _;\n    }\n    \n    constructor (string _name,string _symbol) public {\n         storekeeper = msg.sender;\n         name = _name;\n         symbol = _symbol;\n    }\n     \n    function totalSupply() view public returns (uint256) {\n        return articles.length;\n    }\n    \n    function balanceOf(address _owner) public view returns (uint256 _balance) {\n        return ownedArticleCount[_owner];\n    }\n    \n    function transfer(address _from,address _to,uint256 _id) internal {\n        ownedArticleCount[_to] += 1;\n        articleOwner[_id] = _to;\n        if(_from != address(0)){\n            ownedArticleCount[_from] -= 1;\n        }\n    }\n    function createArticle(string _name,address _to,bool _approve) external  {\n        require(_approve);\n        uint256 id = articles.length;\n        Article memory newArticle = Article(_name);\n        articles.push(newArticle);\n        articleOwner[id] = address (0);\n        transfer(address (0),_to,id);\n    }\n    \n    function ownerCreateArticle(string _name,address _to) public isStoreKeeper returns(bool _success) {\n        uint256 id = articles.length;\n        Article memory newArticle = Article(_name);\n        articles.push(newArticle);\n        articleOwner[id] = address (0);\n        transfer(address (0),_to,id);\n        return true;\n    }\n    \n    function transferToOwner (address _from,uint256 _id) external {\n        transfer(_from, storekeeper,_id);\n    }\n    // function approve(address _to, uint256 _id) public {\n    //     address owner = ownerOfArticle[_id];\n    //     require(msg.sender == owner);\n    //     require(_to != owner);\n    //     approvedArticleTo[_id] = _to;\n    // }\n    \n    // function exists(uint256 _id) public view returns (bool) {\n    //     address owner = articleOwner[_id];\n    //     return owner != address(0);\n    // }\n    \n    function ownerOf(uint256 _id) external view returns (address) {\n        return articleOwner[_id];\n    }\n    \n    // function clearApproval(address _owner, uint256 _id) internal {\n    //     require(articleOwner[_id] == _owner);\n    //     if (approvedArticleTo[_id] != address(0)) {\n    //         approvedArticleTo[_id] = address(0);\n    //     }\n    // }\n    \n    // function getApproved(uint256 _id) public view returns (address) {\n    //     return approvedArticleTo[_id];\n    // }\n}\ncontract buyToken {\n    \n    CafeArticle public Cafe;\n    address public owner;\n    bool internal configOwner;\n    \n    event transferEther(address _from,uint256 _value);\n    \n    constructor (address _tokenAdd) public {\n        owner = msg.sender;\n        Cafe = CafeArticle(_tokenAdd);\n    }\n    \n    modifier isOwner {\n        require(msg.sender == owner);\n        _;\n    }\n    \n    function buyCrticle (string _name) public payable {\n        require(msg.value == 0.001 ether);\n        owner.transfer(msg.value);\n        emit transferEther(msg.sender,msg.value);\n        bool approve = true;\n        Cafe.createArticle(_name,msg.sender,approve);\n    }\n    function payByToken (uint256 _id) public {\n        require(Cafe.ownerOf(_id) == msg.sender);\n        Cafe.transferToOwner(msg.sender,_id);\n    }\n    \n}",
  "sourcePath": "/home/chau/Documents/Internship/CoffeeChain/contract/contracts/CafeArticle.sol",
  "compiler": {
    "name": "solc",
    "version": "0.4.24+commit.e67f0147.Emscripten.clang"
  },
  "schemaVersion": "2.0.1",
  "updatedAt": "2018-08-23T07:37:04.718Z"
}