{
  "contractName": "CafeArticle",
  "abi": [
    {
      "constant": true,
      "inputs": [],
      "name": "storekeeper",
      "outputs": [
        {
          "name": "",
          "type": "address"
        }
      ],
      "payable": false,
      "stateMutability": "view",
      "type": "function"
    },
    {
      "constant": true,
      "inputs": [
        {
          "name": "",
          "type": "uint256"
        }
      ],
      "name": "articles",
      "outputs": [
        {
          "name": "value",
          "type": "uint256"
        }
      ],
      "payable": false,
      "stateMutability": "view",
      "type": "function"
    },
    {
      "inputs": [
        {
          "name": "_name",
          "type": "string"
        },
        {
          "name": "_symbol",
          "type": "string"
        }
      ],
      "payable": false,
      "stateMutability": "nonpayable",
      "type": "constructor"
    },
    {
      "anonymous": false,
      "inputs": [
        {
          "indexed": false,
          "name": "from",
          "type": "address"
        },
        {
          "indexed": false,
          "name": "to",
          "type": "address"
        },
        {
          "indexed": false,
          "name": "tokenId",
          "type": "uint256"
        }
      ],
      "name": "Transfer",
      "type": "event"
    },
    {
      "anonymous": false,
      "inputs": [
        {
          "indexed": false,
          "name": "to",
          "type": "address"
        },
        {
          "indexed": false,
          "name": "value",
          "type": "uint256"
        }
      ],
      "name": "TokenCreaated",
      "type": "event"
    },
    {
      "constant": true,
      "inputs": [],
      "name": "totalSupply",
      "outputs": [
        {
          "name": "",
          "type": "uint256"
        }
      ],
      "payable": false,
      "stateMutability": "view",
      "type": "function"
    },
    {
      "constant": true,
      "inputs": [
        {
          "name": "_owner",
          "type": "address"
        }
      ],
      "name": "balanceOf",
      "outputs": [
        {
          "name": "_balance",
          "type": "uint256"
        }
      ],
      "payable": false,
      "stateMutability": "view",
      "type": "function"
    },
    {
      "constant": false,
      "inputs": [
        {
          "name": "_value",
          "type": "uint256"
        },
        {
          "name": "_to",
          "type": "address"
        }
      ],
      "name": "createArticle",
      "outputs": [],
      "payable": false,
      "stateMutability": "nonpayable",
      "type": "function"
    },
    {
      "constant": true,
      "inputs": [
        {
          "name": "_owner",
          "type": "address"
        }
      ],
      "name": "totalDiscount",
      "outputs": [
        {
          "name": "",
          "type": "uint256"
        }
      ],
      "payable": false,
      "stateMutability": "view",
      "type": "function"
    },
    {
      "constant": false,
      "inputs": [
        {
          "name": "_value",
          "type": "uint256"
        },
        {
          "name": "_to",
          "type": "address"
        }
      ],
      "name": "ownerCreateArticle",
      "outputs": [
        {
          "name": "_success",
          "type": "bool"
        }
      ],
      "payable": false,
      "stateMutability": "nonpayable",
      "type": "function"
    },
    {
      "constant": false,
      "inputs": [
        {
          "name": "_id",
          "type": "uint256"
        }
      ],
      "name": "transferToOwner",
      "outputs": [],
      "payable": false,
      "stateMutability": "nonpayable",
      "type": "function"
    },
    {
      "constant": true,
      "inputs": [
        {
          "name": "_id",
          "type": "uint256"
        }
      ],
      "name": "ownerOf",
      "outputs": [
        {
          "name": "",
          "type": "address"
        }
      ],
      "payable": false,
      "stateMutability": "view",
      "type": "function"
    }
  ],
  "bytecode": "0x608060405234801561001057600080fd5b50604051610b2c380380610b2c8339810180604052810190808051820192919060200180518201929190505050336000806101000a81548173ffffffffffffffffffffffffffffffffffffffff021916908373ffffffffffffffffffffffffffffffffffffffff16021790555081600190805190602001906100939291906100b2565b5080600290805190602001906100aa9291906100b2565b505050610157565b828054600181600116156101000203166002900490600052602060002090601f016020900481019282601f106100f357805160ff1916838001178555610121565b82800160010185558215610121579182015b82811115610120578251825591602001919060010190610105565b5b50905061012e9190610132565b5090565b61015491905b80821115610150576000816000905550600101610138565b5090565b90565b6109c6806101666000396000f300608060405260043610610099576000357c0100000000000000000000000000000000000000000000000000000000900463ffffffff16806318160ddd1461009e57806339c9ab87146100c95780636352211e1461011657806370a082311461018357806375c36ff8146101da57806387c1ed1214610231578063b9fb063c1461025e578063da960a28146102b5578063edcfafe61461031a575b600080fd5b3480156100aa57600080fd5b506100b361035b565b6040518082815260200191505060405180910390f35b3480156100d557600080fd5b5061011460048036038101908080359060200190929190803573ffffffffffffffffffffffffffffffffffffffff169060200190929190505050610368565b005b34801561012257600080fd5b5061014160048036038101908080359060200190929190505050610428565b604051808273ffffffffffffffffffffffffffffffffffffffff1673ffffffffffffffffffffffffffffffffffffffff16815260200191505060405180910390f35b34801561018f57600080fd5b506101c4600480360381019080803573ffffffffffffffffffffffffffffffffffffffff169060200190929190505050610465565b6040518082815260200191505060405180910390f35b3480156101e657600080fd5b5061021b600480360381019080803573ffffffffffffffffffffffffffffffffffffffff1690602001909291905050506104ae565b6040518082815260200191505060405180910390f35b34801561023d57600080fd5b5061025c600480360381019080803590602001909291905050506104f7565b005b34801561026a57600080fd5b50610273610593565b604051808273ffffffffffffffffffffffffffffffffffffffff1673ffffffffffffffffffffffffffffffffffffffff16815260200191505060405180910390f35b3480156102c157600080fd5b5061030060048036038101908080359060200190929190803573ffffffffffffffffffffffffffffffffffffffff1690602001909291905050506105b8565b604051808215151515815260200191505060405180910390f35b34801561032657600080fd5b50610345600480360381019080803590602001909291905050506106da565b6040518082815260200191505060405180910390f35b6000600780549050905090565b6000610372610986565b60078054905091506020604051908101604052808581525090506007819080600181540180825580915050906001820390600052602060002001600090919290919091506000820151816000015550505060006003600084815260200190815260200160002060006101000a81548173ffffffffffffffffffffffffffffffffffffffff021916908373ffffffffffffffffffffffffffffffffffffffff16021790555061042260008484610703565b50505050565b60006003600083815260200190815260200160002060009054906101000a900473ffffffffffffffffffffffffffffffffffffffff169050919050565b6000600460008373ffffffffffffffffffffffffffffffffffffffff1673ffffffffffffffffffffffffffffffffffffffff168152602001908152602001600020549050919050565b6000600660008373ffffffffffffffffffffffffffffffffffffffff1673ffffffffffffffffffffffffffffffffffffffff168152602001908152602001600020549050919050565b3373ffffffffffffffffffffffffffffffffffffffff166003600083815260200190815260200160002060009054906101000a900473ffffffffffffffffffffffffffffffffffffffff1673ffffffffffffffffffffffffffffffffffffffff1614151561056457600080fd5b610590336000809054906101000a900473ffffffffffffffffffffffffffffffffffffffff1683610703565b50565b6000809054906101000a900473ffffffffffffffffffffffffffffffffffffffff1681565b6000806105c3610986565b6000809054906101000a900473ffffffffffffffffffffffffffffffffffffffff1673ffffffffffffffffffffffffffffffffffffffff163373ffffffffffffffffffffffffffffffffffffffff1614151561061e57600080fd5b60078054905091506020604051908101604052808681525090506007819080600181540180825580915050906001820390600052602060002001600090919290919091506000820151816000015550505060006003600084815260200190815260200160002060006101000a81548173ffffffffffffffffffffffffffffffffffffffff021916908373ffffffffffffffffffffffffffffffffffffffff1602179055506106ce60008584610703565b60019250505092915050565b6007818154811015156106e957fe5b906000526020600020016000915090508060000154905081565b6001600460008473ffffffffffffffffffffffffffffffffffffffff1673ffffffffffffffffffffffffffffffffffffffff16815260200190815260200160002060008282540192505081905550816003600083815260200190815260200160002060006101000a81548173ffffffffffffffffffffffffffffffffffffffff021916908373ffffffffffffffffffffffffffffffffffffffff1602179055506007818154811015156107b257fe5b9060005260206000200160000154600660008473ffffffffffffffffffffffffffffffffffffffff1673ffffffffffffffffffffffffffffffffffffffff16815260200190815260200160002060008282540192505081905550600073ffffffffffffffffffffffffffffffffffffffff168373ffffffffffffffffffffffffffffffffffffffff161415156108fa576001600460008573ffffffffffffffffffffffffffffffffffffffff1673ffffffffffffffffffffffffffffffffffffffff1681526020019081526020016000206000828254039250508190555060078181548110151561089f57fe5b9060005260206000200160000154600660008573ffffffffffffffffffffffffffffffffffffffff1673ffffffffffffffffffffffffffffffffffffffff168152602001908152602001600020600082825403925050819055505b7fc31230f4163f6c558b26fb10791423c9affd91761cc3a4e79fe265485307ecd08260078381548110151561092b57fe5b9060005260206000200160000154604051808373ffffffffffffffffffffffffffffffffffffffff1673ffffffffffffffffffffffffffffffffffffffff1681526020018281526020019250505060405180910390a1505050565b6020604051908101604052806000815250905600a165627a7a72305820729ae824dd9c2af78044090af61fee65e350e66de7191c400579485537449aa70029",
  "source": "pragma solidity ^0.4.24;\n\ncontract ERC721 {\n    // Required methods\n    function totalSupply() public view returns (uint256 total);\n    function balanceOf(address _owner) public view returns (uint256 balance);\n    function ownerOf(uint256 _tokenId) external view returns (address owner);\n    function approve(address _to, uint256 _tokenId) external;\n    function transfer(address _to, uint256 _tokenId) external;\n    function transferFrom(address _from, address _to, uint256 _tokenId) external;\n\n    // Events\n    event Transfer(address from, address to, uint256 tokenId);\n    event Approval(address owner, address approved, uint256 tokenId);\n\n    // Optional\n    // function name() public view returns (string name);\n    // function symbol() public view returns (string symbol);\n    // function tokensOfOwner(address _owner) external view returns (uint256[] tokenIds);\n    // function tokenMetadata(uint256 _tokenId, string _preferredTransport) public view returns (string infoUrl);\n\n    // ERC-165 Compatibility (https://github.com/ethereum/EIPs/issues/165)\n    function supportsInterface(bytes4 _interfaceID) external view returns (bool);\n}\n\ncontract CafeArticle {\n\n    address public storekeeper;\n    \n    struct Article {\n        uint256 value;\n    }\n    \n    string internal name;\n    string internal symbol;\n    \n    mapping(uint256 => address)  articleOwner;\n\n    mapping(address => uint256)  ownedArticleCount;\n    \n    mapping(uint256 => address)  approvedArticleTo;\n    \n    mapping(address => uint256) discount;\n    \n    event Transfer(address from, address to, uint256 tokenId);\n    event TokenCreaated(address to, uint256 value);\n    Article[] public articles;\n\n    modifier isStoreKeeper {\n        require(msg.sender == storekeeper);\n        _;\n    }\n    \n    constructor (string _name,string _symbol) public {\n         storekeeper = msg.sender;\n         name = _name;\n         symbol = _symbol;\n    }\n     \n    function totalSupply() view public returns (uint256) {\n        return articles.length;\n    }\n    \n    function balanceOf(address _owner) public view returns (uint256 _balance) {\n        return ownedArticleCount[_owner];\n    }\n    \n    function transferToken(address _from,address _to,uint256 _id) internal {\n        ownedArticleCount[_to] += 1;\n        articleOwner[_id] = _to;\n        discount[_to] += articles[_id].value;\n        if(_from != address(0)){\n            ownedArticleCount[_from] -= 1;\n            discount[_from] -= articles[_id].value;\n        }\n        emit TokenCreaated(_to,articles[_id].value);\n    }\n    function createArticle(uint256 _value,address _to) external  {\n        uint256 id = articles.length;\n        Article memory newArticle = Article(_value);\n        articles.push(newArticle);\n        articleOwner[id] = address (0);\n        transferToken(address (0),_to,id);\n    }\n    \n    function totalDiscount(address _owner) public view returns (uint256) {\n        return discount[_owner];\n    } \n    \n    function ownerCreateArticle(uint256 _value,address _to) public isStoreKeeper returns(bool _success) {\n        uint256 id = articles.length;\n        Article memory newArticle = Article(_value);\n        articles.push(newArticle);\n        articleOwner[id] = address (0);\n        transferToken(address (0),_to,id);\n        return true;\n    }\n    \n    function transferToOwner(uint256 _id) public {\n        require(articleOwner[_id] == msg.sender);\n        transferToken(msg.sender, storekeeper,_id);\n    }\n    // function approve(address _to, uint256 _id) public {\n    //     address owner = ownerOfArticle[_id];\n    //     require(msg.sender == owner);\n    //     require(_to != owner);\n    //     approvedArticleTo[_id] = _to;\n    // }\n    \n    // function exists(uint256 _id) public view returns (bool) {\n    //     address owner = articleOwner[_id];\n    //     return owner != address(0);\n    // }\n    \n    function ownerOf(uint256 _id) external view returns (address) {\n        return articleOwner[_id];\n    }\n    \n    // function clearApproval(address _owner, uint256 _id) internal {\n    //     require(articleOwner[_id] == _owner);\n    //     if (approvedArticleTo[_id] != address(0)) {\n    //         approvedArticleTo[_id] = address(0);\n    //     }\n    // }\n    \n    // function getApproved(uint256 _id) public view returns (address) {\n    //     return approvedArticleTo[_id];\n    // }\n}\n",
  "sourcePath": "/home/chau/Documents/Internship/CoffeeChain/assets/contract/contracts/CafeArticle.sol",
  "compiler": {
    "name": "solc",
    "version": "0.4.24+commit.e67f0147.Emscripten.clang"
  },
  "schemaVersion": "2.0.1",
  "updatedAt": "2018-08-27T07:04:10.583Z"
}