{
  "contractName": "Payment",
  "abi": [
    {
      "constant": true,
      "inputs": [],
      "name": "owner",
      "outputs": [
        {
          "name": "",
          "type": "address"
        }
      ],
      "payable": false,
      "stateMutability": "view",
      "type": "function"
    },
    {
      "constant": true,
      "inputs": [],
      "name": "Cafe",
      "outputs": [
        {
          "name": "",
          "type": "address"
        }
      ],
      "payable": false,
      "stateMutability": "view",
      "type": "function"
    },
    {
      "inputs": [
        {
          "name": "_tokenAdd",
          "type": "address"
        }
      ],
      "payable": false,
      "stateMutability": "nonpayable",
      "type": "constructor"
    },
    {
      "anonymous": false,
      "inputs": [
        {
          "indexed": false,
          "name": "_from",
          "type": "address"
        },
        {
          "indexed": false,
          "name": "_value",
          "type": "uint256"
        }
      ],
      "name": "transferEther",
      "type": "event"
    },
    {
      "anonymous": false,
      "inputs": [
        {
          "indexed": false,
          "name": "_discount",
          "type": "uint256"
        }
      ],
      "name": "lucky",
      "type": "event"
    },
    {
      "constant": false,
      "inputs": [
        {
          "name": "_luckyNumber",
          "type": "uint256"
        },
        {
          "name": "_discount",
          "type": "uint256"
        }
      ],
      "name": "payBill",
      "outputs": [
        {
          "name": "_luckyNumberis",
          "type": "uint256"
        }
      ],
      "payable": true,
      "stateMutability": "payable",
      "type": "function"
    }
  ],
  "bytecode": "0x608060405234801561001057600080fd5b5060405160208061047a8339810180604052810190808051906020019092919050505033600160006101000a81548173ffffffffffffffffffffffffffffffffffffffff021916908373ffffffffffffffffffffffffffffffffffffffff160217905550806000806101000a81548173ffffffffffffffffffffffffffffffffffffffff021916908373ffffffffffffffffffffffffffffffffffffffff160217905550506103b6806100c46000396000f300608060405260043610610057576000357c0100000000000000000000000000000000000000000000000000000000900463ffffffff1680638a97c62c1461005c5780638da5cb5b1461009a578063b4e9a9d9146100f1575b600080fd5b6100846004803603810190808035906020019092919080359060200190929190505050610148565b6040518082815260200191505060405180910390f35b3480156100a657600080fd5b506100af61033f565b604051808273ffffffffffffffffffffffffffffffffffffffff1673ffffffffffffffffffffffffffffffffffffffff16815260200191505060405180910390f35b3480156100fd57600080fd5b50610106610365565b604051808273ffffffffffffffffffffffffffffffffffffffff1673ffffffffffffffffffffffffffffffffffffffff16815260200191505060405180910390f35b60008060003411151561015a57600080fd5b600160009054906101000a900473ffffffffffffffffffffffffffffffffffffffff1673ffffffffffffffffffffffffffffffffffffffff166108fc349081150290604051600060405180830381858888f193505050501580156101c2573d6000803e3d6000fd5b507f05b1137b682add447c965fe52aff916d00305a22b4a70f761ea56d0c6d0bd03d3334604051808373ffffffffffffffffffffffffffffffffffffffff1673ffffffffffffffffffffffffffffffffffffffff1681526020018281526020019250505060405180910390a16001600a60014303406001900481151561024457fe5b0601905083811415610334576000809054906101000a900473ffffffffffffffffffffffffffffffffffffffff1673ffffffffffffffffffffffffffffffffffffffff166339c9ab8784336040518363ffffffff167c0100000000000000000000000000000000000000000000000000000000028152600401808381526020018273ffffffffffffffffffffffffffffffffffffffff1673ffffffffffffffffffffffffffffffffffffffff16815260200192505050600060405180830381600087803b15801561031457600080fd5b505af1158015610328573d6000803e3d6000fd5b50505050839150610338565b8091505b5092915050565b600160009054906101000a900473ffffffffffffffffffffffffffffffffffffffff1681565b6000809054906101000a900473ffffffffffffffffffffffffffffffffffffffff16815600a165627a7a72305820840940d72fd9cba50009da7440adf46d9f81426b8482642ce1e6363679f9323c0029",
  "source": "pragma solidity ^0.4.24;\n\ncontract CafeArticle {\n    function totalSupply() view public returns (uint256);\n    function balanceOf(address _owner) public view returns (uint256);\n    function transferToken(address _from,address _to,uint256 _id) internal ;\n    function createArticle(uint256 _value,address _to) external;\n    function transferToOwner (address _from,uint256 _id) external;\n    function ownerOf(uint256 _id) external view returns (address);\n}\n\n\ncontract Payment{\n    \n    CafeArticle public Cafe;\n    address public owner;\n    bool internal configOwner;\n    \n    event transferEther(address _from,uint256 _value);\n    event lucky(uint _discount);\n    \n    constructor (address _tokenAdd) public {\n        owner = msg.sender;\n        Cafe = CafeArticle(_tokenAdd);\n    }\n    \n    modifier isOwner {\n        require(msg.sender == owner);\n        _;\n    }\n    \n    function payBill(uint256 _luckyNumber,uint256 _discount) public payable returns (uint256 _luckyNumberis) {\n        require(msg.value > 0);\n        owner.transfer(msg.value);\n        emit transferEther(msg.sender,msg.value);\n        uint256 random_number = uint(blockhash(block.number-1))%10 + 1;\n        if(random_number == _luckyNumber){\n            Cafe.createArticle(_discount,msg.sender);\n            return _luckyNumber;\n        }\n        else {\n            return random_number;\n        }\n    }\n}",
  "sourcePath": "/home/chau/Documents/Internship/CoffeeChain/assets/contract/contracts/Payment.sol",
  "compiler": {
    "name": "solc",
    "version": "0.4.24+commit.e67f0147.Emscripten.clang"
  },
  "schemaVersion": "2.0.1",
  "updatedAt": "2018-08-27T07:04:10.577Z"
}